{
  "contractName": "ChangeOwnership",
  "abi": [
    {
      "inputs": [
        {
          "internalType": "address",
          "name": "p_contractadd",
          "type": "address"
        }
      ],
      "payable": false,
      "stateMutability": "nonpayable",
      "type": "constructor"
    },
    {
      "anonymous": false,
      "inputs": [
        {
          "indexed": true,
          "internalType": "bytes32",
          "name": "Part",
          "type": "bytes32"
        },
        {
          "indexed": true,
          "internalType": "address",
          "name": "owner",
          "type": "address"
        }
      ],
      "name": "TransferOwnership_part",
      "type": "event"
    },
    {
      "anonymous": false,
      "inputs": [
        {
          "indexed": true,
          "internalType": "bytes32",
          "name": "Part",
          "type": "bytes32"
        },
        {
          "indexed": true,
          "internalType": "address",
          "name": "owner",
          "type": "address"
        }
      ],
      "name": "TransferOwnership_product",
      "type": "event"
    },
    {
      "constant": true,
      "inputs": [
        {
          "internalType": "bytes32",
          "name": "",
          "type": "bytes32"
        }
      ],
      "name": "CurrentPartOwner",
      "outputs": [
        {
          "internalType": "address",
          "name": "",
          "type": "address"
        }
      ],
      "payable": false,
      "stateMutability": "view",
      "type": "function"
    },
    {
      "constant": true,
      "inputs": [
        {
          "internalType": "bytes32",
          "name": "",
          "type": "bytes32"
        }
      ],
      "name": "CurrentProductOwner",
      "outputs": [
        {
          "internalType": "address",
          "name": "",
          "type": "address"
        }
      ],
      "payable": false,
      "stateMutability": "view",
      "type": "function"
    },
    {
      "constant": false,
      "inputs": [
        {
          "internalType": "uint256",
          "name": "optype",
          "type": "uint256"
        },
        {
          "internalType": "bytes32",
          "name": "phash",
          "type": "bytes32"
        }
      ],
      "name": "CreateOwnership",
      "outputs": [
        {
          "internalType": "bool",
          "name": "",
          "type": "bool"
        }
      ],
      "payable": false,
      "stateMutability": "nonpayable",
      "type": "function"
    },
    {
      "constant": false,
      "inputs": [
        {
          "internalType": "uint256",
          "name": "optype",
          "type": "uint256"
        },
        {
          "internalType": "bytes32",
          "name": "phash",
          "type": "bytes32"
        },
        {
          "internalType": "address",
          "name": "new_owner",
          "type": "address"
        }
      ],
      "name": "TransferOwnership",
      "outputs": [
        {
          "internalType": "bool",
          "name": "",
          "type": "bool"
        }
      ],
      "payable": false,
      "stateMutability": "nonpayable",
      "type": "function"
    }
  ],
  "bytecode": "0x608060405234801561001057600080fd5b506040516112243803806112248339818101604052602081101561003357600080fd5b810190808051906020019092919050505080600260006101000a81548173ffffffffffffffffffffffffffffffffffffffff021916908373ffffffffffffffffffffffffffffffffffffffff1602179055505061118f806100956000396000f3fe608060405234801561001057600080fd5b506004361061004c5760003560e01c80631b8283df146100515780637116bac5146100bf578063837d783a1461012f5780639816375d1461017f575b600080fd5b61007d6004803603602081101561006757600080fd5b81019080803590602001909291905050506101ed565b604051808273ffffffffffffffffffffffffffffffffffffffff1673ffffffffffffffffffffffffffffffffffffffff16815260200191505060405180910390f35b610115600480360360608110156100d557600080fd5b810190808035906020019092919080359060200190929190803573ffffffffffffffffffffffffffffffffffffffff169060200190929190505050610220565b604051808215151515815260200191505060405180910390f35b6101656004803603604081101561014557600080fd5b810190808035906020019092919080359060200190929190505050610681565b604051808215151515815260200191505060405180910390f35b6101ab6004803603602081101561019557600080fd5b8101908080359060200190929190505050611099565b604051808273ffffffffffffffffffffffffffffffffffffffff1673ffffffffffffffffffffffffffffffffffffffff16815260200191505060405180910390f35b60006020528060005260406000206000915054906101000a900473ffffffffffffffffffffffffffffffffffffffff1681565b600080600181111561022e57fe5b841415610385573373ffffffffffffffffffffffffffffffffffffffff1660008085815260200190815260200160002060009054906101000a900473ffffffffffffffffffffffffffffffffffffffff1673ffffffffffffffffffffffffffffffffffffffff16146102eb576040517f08c379a00000000000000000000000000000000000000000000000000000000081526004018080602001828103825260228152602001806111396022913960400191505060405180910390fd5b8160008085815260200190815260200160002060006101000a81548173ffffffffffffffffffffffffffffffffffffffff021916908373ffffffffffffffffffffffffffffffffffffffff1602179055508173ffffffffffffffffffffffffffffffffffffffff16837f1f2b93cd80542cafead82e8ad397a2739b2066044041e091ee30b6afa11fc94c60405160405180910390a361067a565b60018081111561039157fe5b841415610679573373ffffffffffffffffffffffffffffffffffffffff166001600085815260200190815260200160002060009054906101000a900473ffffffffffffffffffffffffffffffffffffffff1673ffffffffffffffffffffffffffffffffffffffff161461044f576040517f08c379a00000000000000000000000000000000000000000000000000000000081526004018080602001828103825260258152602001806111146025913960400191505060405180910390fd5b816001600085815260200190815260200160002060006101000a81548173ffffffffffffffffffffffffffffffffffffffff021916908373ffffffffffffffffffffffffffffffffffffffff1602179055508173ffffffffffffffffffffffffffffffffffffffff16837fb32f794daa73c190fd9cdeb84508a5f70e102e0cbe34d4aaf7c052d0405d406260405160405180910390a36104ed6110cc565b600260009054906101000a900473ffffffffffffffffffffffffffffffffffffffff1673ffffffffffffffffffffffffffffffffffffffff16636e730329856040518263ffffffff1660e01b815260040180828152602001915050608060405180830381600087803b15801561056257600080fd5b505af1158015610576573d6000803e3d6000fd5b505050506040513d601f19601f82011682018060405250608081101561059b57600080fd5b8101908091905050905060008090505b600481101561067657836000808484600481106105c457fe5b6020020151815260200190815260200160002060006101000a81548173ffffffffffffffffffffffffffffffffffffffff021916908373ffffffffffffffffffffffffffffffffffffffff1602179055503373ffffffffffffffffffffffffffffffffffffffff1682826004811061063857fe5b60200201517f1f2b93cd80542cafead82e8ad397a2739b2066044041e091ee30b6afa11fc94c60405160405180910390a380806001019150506105ab565b50505b5b9392505050565b600080600181111561068f57fe5b831415610b7b576000600260009054906101000a900473ffffffffffffffffffffffffffffffffffffffff1673ffffffffffffffffffffffffffffffffffffffff16638c431b9f846040518263ffffffff1660e01b81526004018082815260200191505060006040518083038186803b15801561070b57600080fd5b505afa15801561071f573d6000803e3d6000fd5b505050506040513d6000823e3d601f19601f82011682018060405250608081101561074957600080fd5b810190808051604051939291908464010000000082111561076957600080fd5b8382019150602082018581111561077f57600080fd5b825186600182028301116401000000008211171561079c57600080fd5b8083526020830192505050908051906020019080838360005b838110156107d05780820151818401526020810190506107b5565b50505050905090810190601f1680156107fd5780820380516001836020036101000a031916815260200191505b506040526020018051604051939291908464010000000082111561082057600080fd5b8382019150602082018581111561083657600080fd5b825186600182028301116401000000008211171561085357600080fd5b8083526020830192505050908051906020019080838360005b8381101561088757808201518184015260208101905061086c565b50505050905090810190601f1680156108b45780820380516001836020036101000a031916815260200191505b5060405260200180519060200190929190805160405193929190846401000000008211156108e157600080fd5b838201915060208201858111156108f757600080fd5b825186600182028301116401000000008211171561091457600080fd5b8083526020830192505050908051906020019080838360005b8381101561094857808201518184015260208101905061092d565b50505050905090810190601f1680156109755780820380516001836020036101000a031916815260200191505b50604052505050909192509091505080915050600073ffffffffffffffffffffffffffffffffffffffff1660008085815260200190815260200160002060009054906101000a900473ffffffffffffffffffffffffffffffffffffffff1673ffffffffffffffffffffffffffffffffffffffff1614610a5c576040517f08c379a00000000000000000000000000000000000000000000000000000000081526004018080602001828103825260178152602001807f5061727420416c7265616479205265676973746572656400000000000000000081525060200191505060405180910390fd5b3373ffffffffffffffffffffffffffffffffffffffff168173ffffffffffffffffffffffffffffffffffffffff1614610ae0576040517f08c379a00000000000000000000000000000000000000000000000000000000081526004018080602001828103825260258152602001806110ef6025913960400191505060405180910390fd5b3360008085815260200190815260200160002060006101000a81548173ffffffffffffffffffffffffffffffffffffffff021916908373ffffffffffffffffffffffffffffffffffffffff1602179055503373ffffffffffffffffffffffffffffffffffffffff16837f1f2b93cd80542cafead82e8ad397a2739b2066044041e091ee30b6afa11fc94c60405160405180910390a350611093565b600180811115610b8757fe5b831415611092576000600260009054906101000a900473ffffffffffffffffffffffffffffffffffffffff1673ffffffffffffffffffffffffffffffffffffffff166379054391846040518263ffffffff1660e01b81526004018082815260200191505060006040518083038186803b158015610c0357600080fd5b505afa158015610c17573d6000803e3d6000fd5b505050506040513d6000823e3d601f19601f820116820180604052506080811015610c4157600080fd5b8101908080516040519392919084640100000000821115610c6157600080fd5b83820191506020820185811115610c7757600080fd5b8251866001820283011164010000000082111715610c9457600080fd5b8083526020830192505050908051906020019080838360005b83811015610cc8578082015181840152602081019050610cad565b50505050905090810190601f168015610cf55780820380516001836020036101000a031916815260200191505b5060405260200180516040519392919084640100000000821115610d1857600080fd5b83820191506020820185811115610d2e57600080fd5b8251866001820283011164010000000082111715610d4b57600080fd5b8083526020830192505050908051906020019080838360005b83811015610d7f578082015181840152602081019050610d64565b50505050905090810190601f168015610dac5780820380516001836020036101000a031916815260200191505b5060405260200180516040519392919084640100000000821115610dcf57600080fd5b83820191506020820185811115610de557600080fd5b8251866001820283011164010000000082111715610e0257600080fd5b8083526020830192505050908051906020019080838360005b83811015610e36578082015181840152602081019050610e1b565b50505050905090810190601f168015610e635780820380516001836020036101000a031916815260200191505b506040526020018051906020019092919050505090919250909150905080915050600073ffffffffffffffffffffffffffffffffffffffff166001600085815260200190815260200160002060009054906101000a900473ffffffffffffffffffffffffffffffffffffffff1673ffffffffffffffffffffffffffffffffffffffff1614610f59576040517f08c379a000000000000000000000000000000000000000000000000000000000815260040180806020018281038252601a8152602001807f50726f6475637420416c7265616479205265676973746572656400000000000081525060200191505060405180910390fd5b3373ffffffffffffffffffffffffffffffffffffffff168173ffffffffffffffffffffffffffffffffffffffff1614610ffa576040517f08c379a00000000000000000000000000000000000000000000000000000000081526004018080602001828103825260208152602001807f50726f64756374205761736e2774204d6164652042792052657175657374657281525060200191505060405180910390fd5b336001600085815260200190815260200160002060006101000a81548173ffffffffffffffffffffffffffffffffffffffff021916908373ffffffffffffffffffffffffffffffffffffffff1602179055503373ffffffffffffffffffffffffffffffffffffffff16837fb32f794daa73c190fd9cdeb84508a5f70e102e0cbe34d4aaf7c052d0405d406260405160405180910390a3505b5b92915050565b60016020528060005260406000206000915054906101000a900473ffffffffffffffffffffffffffffffffffffffff1681565b604051806080016040528060049060208202803883398082019150509050509056fe50617274205761736e2774204d616e7566616374757265642042792052657175657374657250726f64756374204f776e657273686970206973206e6f74206f662072657175657374657250617274204f776e657273686970206973206e6f74206f6620726571756573746572a265627a7a72315820543643e9485a90dc70fb194f8236ffcfa15d4221601d0f06de1a0c04593d458464736f6c63430005100032",
  "source": "// SPDX-License-Identifier: GPL-3.0\npragma solidity >=0.5.0 <0.7.0;\n\ncontract ProductManagement {\n    // Not using create new contract via because we dont want to call complete contract\n    //Just to allow ABI calls\n\n    struct part {\n        string type_part;\n        string serial_num;\n        address owner;\n        string time_stamp;\n    }\n\n    struct product {\n        string serial_num;\n        string type_prod;\n        string time_stamp;\n        //assuming that a maximum of 4 parts can build a product, this value is changeable acc to req.\n        bytes32[4] parts;\n        address owner;\n    }\n\n    mapping(bytes32 => part) public parts;\n    mapping(bytes32 => product) public products;\n\n    function getParts(bytes32 product_hash)\n        public\n        returns (bytes32[4] memory)\n    {}\n}\n\ncontract ChangeOwnership {\n    enum OpType {PART, PRODUCT}//0 is part, 1 is product\n    mapping(bytes32 => address) public CurrentPartOwner;\n    mapping(bytes32 => address) public CurrentProductOwner;\n\n    event TransferOwnership_part(bytes32 indexed Part, address indexed owner);\n    event TransferOwnership_product(\n        bytes32 indexed Part,\n        address indexed owner\n    );\n    ProductManagement private inst_pm;\n\n    constructor(address p_contractadd) public {\n        inst_pm = ProductManagement(p_contractadd);\n        //this is for chicking product validity\n    }\n\n    function CreateOwnership(uint256 optype, bytes32 phash)\n        public\n        returns (bool)\n    {\n        if (optype == uint256(OpType.PART)) {\n            address owner;\n            (, , owner, ) = inst_pm.parts(phash);\n            require(\n                CurrentPartOwner[phash] == address(0),\n                \"Part Already Registered\"\n            );\n            require(owner == msg.sender, \"Part Wasn't Manufactured By Requester\");\n            CurrentPartOwner[phash] = msg.sender;\n            emit TransferOwnership_part(phash, msg.sender);\n        } else if (optype == uint256(OpType.PRODUCT)) {\n            address owner;\n            (, , , owner) = inst_pm.products(phash);\n            require(\n                CurrentProductOwner[phash] == address(0),\n                \"Product Already Registered\"\n            );\n            require(owner == msg.sender, \"Product Wasn't Made By Requester\");\n            CurrentProductOwner[phash] = msg.sender;\n            emit TransferOwnership_product(phash, msg.sender);\n        }\n    }\n\n    function TransferOwnership(\n        uint256 optype,\n        bytes32 phash,\n        address new_owner\n    ) public returns (bool) {\n        if (optype == uint256(OpType.PART)) {\n            require(\n                CurrentPartOwner[phash] == msg.sender,\n                \"Part Ownership is not of requester\"\n            );\n            CurrentPartOwner[phash] = new_owner;\n            emit TransferOwnership_part(phash, new_owner);\n        } else if (optype == uint256(OpType.PRODUCT)) {\n            require(\n                CurrentProductOwner[phash] == msg.sender,\n                \"Product Ownership is not of requester\"\n            );\n            CurrentProductOwner[phash] = new_owner;\n            emit TransferOwnership_product(phash, new_owner);\n            // BUT THE CHANGE HERE IS WE MUST TRANSFER OWNERSHIP OF PARTS AS WELL\n            bytes32[4] memory partslist = inst_pm.getParts(phash);\n            uint256 i;\n            for (i = 0; i < partslist.length; i++) {\n                CurrentPartOwner[partslist[i]] = new_owner;\n                //TRAVERSE THROUGH EVERY PART AND CHANGE OWNERSHIP\n                emit TransferOwnership_part(partslist[i], msg.sender);\n            }\n        }\n    }\n}\n",
  "sourcePath": "/home/kaneki/Documents/blockchain/contracts/ChangeOwnership.sol",
  "compiler": {
    "name": "solc",
    "version": "0.5.16+commit.9c3226ce.Emscripten.clang"
  },
  "schemaVersion": "3.2.0",
  "updatedAt": "2020-06-13T09:22:01.234Z",
  "devdoc": {
    "methods": {}
  },
  "userdoc": {
    "methods": {}
  }
}