{
  "contractName": "ProductManagement",
  "abi": [
    {
      "constant": true,
      "inputs": [
        {
          "internalType": "bytes32",
          "name": "",
          "type": "bytes32"
        }
      ],
      "name": "parts",
      "outputs": [
        {
          "internalType": "string",
          "name": "type_part",
          "type": "string"
        },
        {
          "internalType": "string",
          "name": "serial_num",
          "type": "string"
        },
        {
          "internalType": "address",
          "name": "owner",
          "type": "address"
        },
        {
          "internalType": "string",
          "name": "time_stamp",
          "type": "string"
        }
      ],
      "payable": false,
      "stateMutability": "view",
      "type": "function"
    },
    {
      "constant": true,
      "inputs": [
        {
          "internalType": "bytes32",
          "name": "",
          "type": "bytes32"
        }
      ],
      "name": "products",
      "outputs": [
        {
          "internalType": "string",
          "name": "serial_num",
          "type": "string"
        },
        {
          "internalType": "string",
          "name": "type_prod",
          "type": "string"
        },
        {
          "internalType": "string",
          "name": "time_stamp",
          "type": "string"
        },
        {
          "internalType": "address",
          "name": "owner",
          "type": "address"
        }
      ],
      "payable": false,
      "stateMutability": "view",
      "type": "function"
    },
    {
      "constant": false,
      "inputs": [
        {
          "internalType": "string",
          "name": "SerialNumber",
          "type": "string"
        },
        {
          "internalType": "string",
          "name": "part_type",
          "type": "string"
        },
        {
          "internalType": "string",
          "name": "ProductionDate",
          "type": "string"
        },
        {
          "internalType": "address",
          "name": "manufacturer",
          "type": "address"
        }
      ],
      "name": "buildpart",
      "outputs": [
        {
          "internalType": "bytes32",
          "name": "",
          "type": "bytes32"
        }
      ],
      "payable": false,
      "stateMutability": "nonpayable",
      "type": "function"
    },
    {
      "constant": false,
      "inputs": [
        {
          "internalType": "bytes32",
          "name": "product_hash",
          "type": "bytes32"
        }
      ],
      "name": "getParts",
      "outputs": [
        {
          "internalType": "bytes32[4]",
          "name": "",
          "type": "bytes32[4]"
        }
      ],
      "payable": false,
      "stateMutability": "nonpayable",
      "type": "function"
    },
    {
      "constant": false,
      "inputs": [
        {
          "internalType": "string",
          "name": "SerialNumber",
          "type": "string"
        },
        {
          "internalType": "string",
          "name": "product_type",
          "type": "string"
        },
        {
          "internalType": "string",
          "name": "ProductionDate",
          "type": "string"
        },
        {
          "internalType": "bytes32[4]",
          "name": "PartsUsed",
          "type": "bytes32[4]"
        }
      ],
      "name": "buildProduct",
      "outputs": [
        {
          "internalType": "bytes32",
          "name": "",
          "type": "bytes32"
        }
      ],
      "payable": false,
      "stateMutability": "nonpayable",
      "type": "function"
    }
  ],
  "bytecode": "0x608060405234801561001057600080fd5b506117f2806100206000396000f3fe608060405234801561001057600080fd5b50600436106100575760003560e01c80636e7303291461005c57806379054391146100c65780638c431b9f14610278578063928abfd91461042a578063af8b15bb14610668575b600080fd5b6100886004803603602081101561007257600080fd5b8101908080359060200190929190505050610885565b6040518082600460200280838360005b838110156100b3578082015181840152602081019050610098565b5050505090500191505060405180910390f35b6100f2600480360360208110156100dc57600080fd5b81019080803590602001909291905050506109bf565b604051808060200180602001806020018573ffffffffffffffffffffffffffffffffffffffff1673ffffffffffffffffffffffffffffffffffffffff168152602001848103845288818151815260200191508051906020019080838360005b8381101561016c578082015181840152602081019050610151565b50505050905090810190601f1680156101995780820380516001836020036101000a031916815260200191505b50848103835287818151815260200191508051906020019080838360005b838110156101d25780820151818401526020810190506101b7565b50505050905090810190601f1680156101ff5780820380516001836020036101000a031916815260200191505b50848103825286818151815260200191508051906020019080838360005b8381101561023857808201518184015260208101905061021d565b50505050905090810190601f1680156102655780820380516001836020036101000a031916815260200191505b5097505050505050505060405180910390f35b6102a46004803603602081101561028e57600080fd5b8101908080359060200190929190505050610bd7565b6040518080602001806020018573ffffffffffffffffffffffffffffffffffffffff1673ffffffffffffffffffffffffffffffffffffffff16815260200180602001848103845288818151815260200191508051906020019080838360005b8381101561031e578082015181840152602081019050610303565b50505050905090810190601f16801561034b5780820380516001836020036101000a031916815260200191505b50848103835287818151815260200191508051906020019080838360005b83811015610384578082015181840152602081019050610369565b50505050905090810190601f1680156103b15780820380516001836020036101000a031916815260200191505b50848103825285818151815260200191508051906020019080838360005b838110156103ea5780820151818401526020810190506103cf565b50505050905090810190601f1680156104175780820380516001836020036101000a031916815260200191505b5097505050505050505060405180910390f35b610652600480360360e081101561044057600080fd5b810190808035906020019064010000000081111561045d57600080fd5b82018360208201111561046f57600080fd5b8035906020019184600183028401116401000000008311171561049157600080fd5b91908080601f016020809104026020016040519081016040528093929190818152602001838380828437600081840152601f19601f820116905080830192505050505050509192919290803590602001906401000000008111156104f457600080fd5b82018360208201111561050657600080fd5b8035906020019184600183028401116401000000008311171561052857600080fd5b91908080601f016020809104026020016040519081016040528093929190818152602001838380828437600081840152601f19601f8201169050808301925050505050505091929192908035906020019064010000000081111561058b57600080fd5b82018360208201111561059d57600080fd5b803590602001918460018302840111640100000000831117156105bf57600080fd5b91908080601f016020809104026020016040519081016040528093929190818152602001838380828437600081840152601f19601f82011690508083019250505050505050919291929080608001906004806020026040519081016040528092919082600460200280828437600081840152601f19601f8201169050808301925050505050509192919290505050610def565b6040518082815260200191505060405180910390f35b61086f6004803603608081101561067e57600080fd5b810190808035906020019064010000000081111561069b57600080fd5b8201836020820111156106ad57600080fd5b803590602001918460018302840111640100000000831117156106cf57600080fd5b91908080601f016020809104026020016040519081016040528093929190818152602001838380828437600081840152601f19601f8201169050808301925050505050505091929192908035906020019064010000000081111561073257600080fd5b82018360208201111561074457600080fd5b8035906020019184600183028401116401000000008311171561076657600080fd5b91908080601f016020809104026020016040519081016040528093929190818152602001838380828437600081840152601f19601f820116905080830192505050505050509192919290803590602001906401000000008111156107c957600080fd5b8201836020820111156107db57600080fd5b803590602001918460018302840111640100000000831117156107fd57600080fd5b91908080601f016020809104026020016040519081016040528093929190818152602001838380828437600081840152601f19601f820116905080830192505050505050509192919290803573ffffffffffffffffffffffffffffffffffffffff1690602001909291905050506112b2565b6040518082815260200191505060405180910390f35b61088d6115e6565b600073ffffffffffffffffffffffffffffffffffffffff166001600084815260200190815260200160002060070160009054906101000a900473ffffffffffffffffffffffffffffffffffffffff1673ffffffffffffffffffffffffffffffffffffffff161415610966576040517f08c379a00000000000000000000000000000000000000000000000000000000081526004018080602001828103825260128152602001807f50726f6475637420696e6578697374656e74000000000000000000000000000081525060200191505060405180910390fd5b600160008381526020019081526020016000206003016004806020026040519081016040528092919082600480156109b3576020028201915b81548152602001906001019080831161099f575b50505050509050919050565b6001602052806000526040600020600091509050806000018054600181600116156101000203166002900480601f016020809104026020016040519081016040528092919081815260200182805460018160011615610100020316600290048015610a6b5780601f10610a4057610100808354040283529160200191610a6b565b820191906000526020600020905b815481529060010190602001808311610a4e57829003601f168201915b505050505090806001018054600181600116156101000203166002900480601f016020809104026020016040519081016040528092919081815260200182805460018160011615610100020316600290048015610b095780601f10610ade57610100808354040283529160200191610b09565b820191906000526020600020905b815481529060010190602001808311610aec57829003601f168201915b505050505090806002018054600181600116156101000203166002900480601f016020809104026020016040519081016040528092919081815260200182805460018160011615610100020316600290048015610ba75780601f10610b7c57610100808354040283529160200191610ba7565b820191906000526020600020905b815481529060010190602001808311610b8a57829003601f168201915b5050505050908060070160009054906101000a900473ffffffffffffffffffffffffffffffffffffffff16905084565b6000602052806000526040600020600091509050806000018054600181600116156101000203166002900480601f016020809104026020016040519081016040528092919081815260200182805460018160011615610100020316600290048015610c835780601f10610c5857610100808354040283529160200191610c83565b820191906000526020600020905b815481529060010190602001808311610c6657829003601f168201915b505050505090806001018054600181600116156101000203166002900480601f016020809104026020016040519081016040528092919081815260200182805460018160011615610100020316600290048015610d215780601f10610cf657610100808354040283529160200191610d21565b820191906000526020600020905b815481529060010190602001808311610d0457829003601f168201915b5050505050908060020160009054906101000a900473ffffffffffffffffffffffffffffffffffffffff1690806003018054600181600116156101000203166002900480601f016020809104026020016040519081016040528092919081815260200182805460018160011615610100020316600290048015610de55780601f10610dba57610100808354040283529160200191610de5565b820191906000526020600020905b815481529060010190602001808311610dc857829003601f168201915b5050505050905084565b600080600090505b6004811015610ef557600073ffffffffffffffffffffffffffffffffffffffff16600080858460048110610e2757fe5b6020020151815260200190815260200160002060020160009054906101000a900473ffffffffffffffffffffffffffffffffffffffff1673ffffffffffffffffffffffffffffffffffffffff161415610ee8576040517f08c379a000000000000000000000000000000000000000000000000000000000815260040180806020018281038252601f8152602001807f496e6578697374656e7420706172742075736564206f6e2070726f647563740081525060200191505060405180910390fd5b8080600101915050610df7565b6060868686336040516020018085805190602001908083835b60208310610f315780518252602082019150602081019050602083039250610f0e565b6001836020036101000a03801982511681845116808217855250505050505090500184805190602001908083835b60208310610f825780518252602082019150602081019050602083039250610f5f565b6001836020036101000a03801982511681845116808217855250505050505090500183805190602001908083835b60208310610fd35780518252602082019150602081019050602083039250610fb0565b6001836020036101000a0380198251168184511680821785525050505050509050018273ffffffffffffffffffffffffffffffffffffffff1673ffffffffffffffffffffffffffffffffffffffff1660601b815260140194505050505060405160208183030381529060405290506000816040516020018082805190602001908083835b6020831061107a5780518252602082019150602081019050602083039250611057565b6001836020036101000a038019825116818451168082178552505050505050905001915050604051602081830303815290604052805190602001209050600073ffffffffffffffffffffffffffffffffffffffff166001600083815260200190815260200160002060070160009054906101000a900473ffffffffffffffffffffffffffffffffffffffff1673ffffffffffffffffffffffffffffffffffffffff161461118f576040517f08c379a00000000000000000000000000000000000000000000000000000000081526004018080602001828103825260178152602001807f50726f6475637420494420616c7265616479207573656400000000000000000081525060200191505060405180910390fd5b611197611608565b6040518060a001604052808a81526020018981526020018881526020018781526020013373ffffffffffffffffffffffffffffffffffffffff16815250905080600160008481526020019081526020016000206000820151816000019080519060200190611206929190611653565b506020820151816001019080519060200190611223929190611653565b506040820151816002019080519060200190611240929190611653565b506060820151816003019060046112589291906116d3565b5060808201518160070160006101000a81548173ffffffffffffffffffffffffffffffffffffffff021916908373ffffffffffffffffffffffffffffffffffffffff16021790555090505081945050505050949350505050565b60006060858585336040516020018085805190602001908083835b602083106112f057805182526020820191506020810190506020830392506112cd565b6001836020036101000a03801982511681845116808217855250505050505090500184805190602001908083835b60208310611341578051825260208201915060208101905060208303925061131e565b6001836020036101000a03801982511681845116808217855250505050505090500183805190602001908083835b60208310611392578051825260208201915060208101905060208303925061136f565b6001836020036101000a0380198251168184511680821785525050505050509050018273ffffffffffffffffffffffffffffffffffffffff1673ffffffffffffffffffffffffffffffffffffffff1660601b81526014019450505050506040516020818303038152906040529050600081805190602001209050600073ffffffffffffffffffffffffffffffffffffffff1660008083815260200190815260200160002060020160009054906101000a900473ffffffffffffffffffffffffffffffffffffffff1673ffffffffffffffffffffffffffffffffffffffff16146114e3576040517f08c379a00000000000000000000000000000000000000000000000000000000081526004018080602001828103825260188152602001807f5061727420494420616c726561647920496e20436861696e000000000000000081525060200191505060405180910390fd5b6114eb611713565b60405180608001604052808881526020018981526020018673ffffffffffffffffffffffffffffffffffffffff168152602001878152509050806000808481526020019081526020016000206000820151816000019080519060200190611553929190611653565b506020820151816001019080519060200190611570929190611653565b5060408201518160020160006101000a81548173ffffffffffffffffffffffffffffffffffffffff021916908373ffffffffffffffffffffffffffffffffffffffff16021790555060608201518160030190805190602001906115d4929190611653565b50905050819350505050949350505050565b6040518060800160405280600490602082028038833980820191505090505090565b6040518060a00160405280606081526020016060815260200160608152602001611630611751565b8152602001600073ffffffffffffffffffffffffffffffffffffffff1681525090565b828054600181600116156101000203166002900490600052602060002090601f016020900481019282601f1061169457805160ff19168380011785556116c2565b828001600101855582156116c2579182015b828111156116c15782518255916020019190600101906116a6565b5b5090506116cf9190611773565b5090565b8260048101928215611702579160200282015b828111156117015782518255916020019190600101906116e6565b5b50905061170f9190611798565b5090565b60405180608001604052806060815260200160608152602001600073ffffffffffffffffffffffffffffffffffffffff168152602001606081525090565b6040518060800160405280600490602082028038833980820191505090505090565b61179591905b80821115611791576000816000905550600101611779565b5090565b90565b6117ba91905b808211156117b657600081600090555060010161179e565b5090565b9056fea265627a7a72315820cd71d98a3424fac0ecc352b5d1a38d4b1eedc995913aa861edfb80bf8561d92364736f6c63430005100032",
  "source": "// SPDX-License-Identifier: GPL-3.0\npragma solidity >=0.5.0 <0.7.0;\n\ncontract ProductManagement {\n    struct part {\n        string type_part;\n        string serial_num;\n        address owner;\n        string time_stamp;\n    }\n\n    mapping(bytes32 => part) public parts;\n\n    function buildpart(\n        string memory SerialNumber,\n        string memory part_type,\n        string memory ProductionDate,\n        address manufacturer\n    ) public returns (bytes32) {\n        //Owner ID initializes the part to be owned by factory\n        //Part Factory = 1\n        //Car Manufacturer = 2\n        //Dealer = 3\n\n        //to avoid excess memory we can make a new fucntion to concatenate strings or we can also have the frontend send concatenated strings.\n         bytes memory string_to_hash = bytes(string(\n            abi.encodePacked(\n                SerialNumber,\n                part_type,\n                ProductionDate,\n                msg.sender\n            )\n        ));\n        bytes32 part_hash = keccak256((string_to_hash));\n        require(parts[part_hash].owner == address(0), \"Part ID already In Chain\");\n\n        part memory new_part = part(\n            part_type,\n            SerialNumber,\n            manufacturer,\n            ProductionDate\n        );\n        parts[part_hash] = new_part;\n        return part_hash;\n    }\n\n    struct product {\n        string serial_num;\n        string type_prod;\n        string time_stamp;\n        //assuming that a maximum of 4 parts can build a product, this value is changeable acc to req.\n        bytes32[4] parts;\n        address owner;\n    }\n\n    mapping(bytes32 => product) public products;\n\n    //'contructor () public{} // we will initiazlize with our own data\n    function getParts(bytes32 product_hash) public returns (bytes32[4] memory) {\n        //The automatic getter does not return arrays, so lets create a function for that\n        require(\n            products[product_hash].owner != address(0),\n            \"Product inexistent\"\n        );\n        return products[product_hash].parts;\n    }\n\n    function buildProduct(\n        string memory SerialNumber,\n        string memory product_type,\n        string memory ProductionDate,\n        bytes32[4] memory PartsUsed\n    ) public returns (bytes32) {\n        //Check if all the parts exist, hash values and add to product mapping.\n        uint256 count;\n        for (count = 0; count < PartsUsed.length; count++) {\n            require(\n                parts[PartsUsed[count]].owner != address(0),\n                \"Inexistent part used on product\"\n            );\n        }\n\n        //Create hash for data and check if exists. If it doesn't, create the part and return the ID to the user\n        bytes memory string_to_hash = bytes(string(\n            abi.encodePacked(\n                SerialNumber,\n                product_type,\n                ProductionDate,\n                msg.sender\n            )\n        ));\n        bytes32 product_hash = keccak256(abi.encodePacked(string_to_hash));\n        require(\n            products[product_hash].owner == address(0),\n            \"Product ID already used\"\n        );\n\n        product memory new_product = product(\n            SerialNumber,\n            product_type,\n            ProductionDate,\n            PartsUsed,\n            msg.sender\n        );\n        products[product_hash] = new_product;\n        return product_hash;\n    }\n}\n",
  "sourcePath": "/home/kaneki/Documents/blockchain/contracts/ProductManagement.sol",
  "compiler": {
    "name": "solc",
    "version": "0.5.16+commit.9c3226ce.Emscripten.clang"
  },
  "schemaVersion": "3.2.0",
  "updatedAt": "2020-06-13T16:51:22.866Z",
  "devdoc": {
    "methods": {}
  },
  "userdoc": {
    "methods": {}
  }
}